S0120000536D6172745F486F6D652E7372656323
S11300000C942A000C9447000C9447000C9447006D
S11300100C946E190C9433190C9447000C944700FB
S11300200C9447000C9447000C94C0180C94851849
S11300300C9447000C9447000C9447000C94470020
S11300400C9447000C9447000C9447000C94470010
S11300500C94470011241FBECFE5D8E0DEBFCDBF0E
S113006014E0A0E6B0E0ECE7FFE302C005900D92D7
S1130070A63BB107D9F724E0A6EBB4E001C01D927A
S1130080A03FB207E1F70E94A8150C94BC1F0C9482
S1130090000066EB74E080E00E94FD158091B604D8
S11300A08D3130F040E062E082E00E9498160895BD
S11300B0853128F441E062E082E00E9498160895B8
S11300C00E94B9130E948F170E94A2170E94B711B1
S11300D064E083E00E94891560E070E0CB010E9437
S11300E08F150E946B1283E00E94CD1540E060E002
S11300F080E00E94181641E062E082E00E94181637
S113010066E083E00E94B3110E94A41141E061E023
S113011083E00E94181640E060E083E00E94181615
S11301200E948B170E944D1863E083E00E946B15B8
S113013060E081E00E946B1562E080E00E946B1534
S113014063E080E00E946B1562E083E00E946B151F
S113015065E083E00E946B150E94FB1889E490E03F
S11301600E9425190895CF93DF93CDB7DEB7E097AA
S11301700FB6F894DEBF0FBECDBF0E9460000E9490
S1130180D91488E0E2E7F0E0DE01119601900D92C7
S11301908A95E1F788E0E2E7F0E0DE011996019044
S11301A00D928A95E1F788E0EAE7F0E0DE015196E6
S11301B001900D928A95E1F788E0EAE7F0E0DE012C
S11301C0599601900D928A95E1F788E0E2E8F0E013
S11301D0DE01919601900D928A95E1F788E0E2E8BC
S11301E0F0E0DE01999601900D928A95E1F7BE0147
S11301F06F5F7F4F80E190E00E94D811BE01675F7E
S11302007F4F88E190E00E94D811BE016F5E7F4F5E
S113021080E590E00E94D811BE01675E7F4F88E5BB
S113022090E00E94D811BE016F5D7F4F80E690E0A0
S11302300E94D811BE01675D7F4F88E690E00E945E
S1130240D811E0960FB6F894DEBF0FBECDBFDF9194
S1130250CF910895CF92DF92EF92FF921F93CF93A5
S1130260DF93009709F469C06115710509F465C04D
S11302707B016C010E94D91460E081E00E9440156A
S11302808AE890E00E94511460E082E00E944015E8
S11302908CE990E00E9451142FEF83ED90E32150FC
S11302A080409040E1F700C000000E94D91460E053
S11302B081E00E9440158CEB90E00E94511410E004
S11302C011C0E601C10FD11DCE010E949F12988179
S11302D09F3FB9F3612F82E00E94401588810E94FC
S11302E01B141F5F173068F3F601E10FF11D108234
S11302F00E94D91460E081E00E9440158AEA90E0EF
S11303000E94511410E013C0E701C10FD11DCE01AA
S11303100E949F1288818F3FB9F3612F82E00E946F
S1130320401588810E941B140E945B151F5F1730C3
S113033058F3F701E10FF11D1082DF91CF911F9166
S1130340FF90EF90DF90CF900895CF92DF92EF92DD
S1130350FF920F931F93CF93009709F464C0611524
S1130360710509F460C08B017C018CEB90E00E9464
S1130370B0118DE00E94A711C0E00BC06701CC0E44
S1130380D11CC6010E94AA11F6018081833219F0A2
S1130390CF5FC83098F3F701EC0FF11D108284EBA6
S11303A090E00E94B0118DE00E94A711C0E007C048
S11303B0F701EC0FF11D80810E94A711CF5FC830B7
S11303C0B8F38DE00E94A71187EC90E00E94B01171
S11303D08DE00E94A711C0E00BC07801EC0EF11C67
S11303E0C7010E94AA11F7018081833219F0CF5FFF
S11303F0C93098F3F801EC0FF11D108281ED90E003
S11304000E94B0118DE00E94A711C0E007C0F8015E
S1130410EC0FF11D80810E94A711CF5FC830B8F3A3
S11304208DE00E94A711CF911F910F91FF90EF9043
S1130430DF90CF9008958F929F92AF92BF92CF9208
S1130440DF92EF92FF920F931F93CF93DF93CDB779
S1130450DEB7A0970FB6F894DEBF0FBECDBF61150F
S1130460710509F4B6C14B01813009F0E8C0D8C068
S1130470A394BE016F5E7F4FCE0149960E942A016C
S1130480B12CC12C00E060C0E02EEE0CEE0CEE0CA2
S1130490EE0CF12CAE01475F5F4F68E070E0C701DE
S11304A00E942B12AE014F5F5F4F68E070E0C701FE
S11304B008960E942B1240E020E014C0822F90E0A6
S11304C0E9E1F0E0EC0FFD1FE80FF91F3081E9E0EE
S11304D0F0E0EC0FFD1FE80FF91F8081381301C015
S11304E04F5F2F5F283050F3483061F515C0822FDD
S11304F090E0E1E1F0E0EC0FFD1FE80FF91F30811F
S1130500E1E0F0E0EC0FFD1FE80FF91F80813813E4
S113051001C04F5F2F5F02C040E020E0283038F375
S1130520483071F4053031F481E0F4018083DD2436
S1130530D3940DC082E0F4018083DD24D39407C0FA
S1130540B39401C0C3940F5F063008F49DCFF1E06B
S1130550DF1214C00E94D91460E081E00E944015AB
S11305608FED90E00E9451142FEF89E698E121501D
S113057080409040E1F700C0000058C0E6E0CE1291
S113058026C00E94D91460E081E00E9440158FEEDD
S113059090E00E94511460E082E00E9440158DEFCB
S11305A090E00E9451141230C9F1FFEF23ED80E373
S11305B0F15020408040E1F700C0000060E082E09C
S11305C00E9440158DE091E00E94511427C0BB2089
S11305D029F10E94D91460E081E00E9440158FEE59
S11305E090E00E94511460E082E00E9440158EE188
S11305F091E00E945114123089F09FEFE3EDF0E393
S11306009150E040F040E1F700C0000060E082E07B
S11306100E9440158DE091E00E9451141F5F03C0B9
S1130620D12CA12C10E0133008F422CF23E0A21225
S1130630D0C0D110CEC085E0F4018083CAC082301E
S113064009F0C7C0B8C0A3948DE291E00E94B01134
S113065080E591E00E94B011BE016F5E7F4FCE0134
S113066049960E94A501B12CC12C05E060C0E02E82
S1130670EE0CEE0CEE0CEE0CF12CAE01475F5F4F6E
S113068068E070E0C7010E942B12AE014F5F5F4F1C
S113069068E070E0C70108960E942B1240E020E059
S11306A014C0822F90E0E9E1F0E0EC0FFD1FE80FA9
S11306B0F91F3081E9E0F0E0EC0FFD1FE80FF91FAE
S11306C08081381301C04F5F2F5F283050F34830CA
S11306D061F515C0822F90E0E1E1F0E0EC0FFD1F21
S11306E0E80FF91F3081E1E0F0E0EC0FFD1FE80FA7
S11306F0F91F8081381301C04F5F2F5F02C040E0B3
S113070020E0283038F3483071F4053031F483E0C8
S1130710F4018083DD24D3940DC084E0F40180834C
S1130720DD24D39407C0B39401C0C3940F5F0B308E
S113073008F49DCFF1E0DF1208C08FED90E00E9435
S1130740B0118DE00E94A7113CC026E0C21218C06F
S11307508FEE90E00E94B0118DE00E94A7118DEF02
S113076090E00E94B0118DE00E94A711123009F1AF
S11307708DE091E00E94B0118DE00E94A71119C094
S1130780BB20B9F08FEE90E00E94B0118DE00E9482
S1130790A7118EE191E00E94B0118DE00E94A71193
S11307A0123039F08DE091E00E94B0118DE00E948A
S11307B0A7111F5F03C0D12CA12C10E0133008F443
S11307C042CF83E0A81205C0D11003C085E0F40134
S11307D08083A0960FB6F894DEBF0FBECDBFDF9125
S11307E0CF911F910F91FF90EF90DF90CF90BF902A
S11307F0AF909F908F90089582E591E00E94B01190
S11308008DE00E94A7110E94D91482E591E00E9414
S1130810511408C084E690E00E949F1287EC94E093
S11308200E94AD11809164008F3F21F49091C70420
S1130830933281F7833251F483E691E00E94B01140
S113084065E670E081E00E941B0208958091C70470
S1130850833259F40E94D9148EE691E00E94511417
S113086065E670E082E00E941B020895EF92FF9219
S11308700F931F93CF93DF93CDB7DEB7E0970FB6F7
S1130880F894DEBF0FBECDBF8AE791E00E94B0119D
S11308908DEA91E00E94B011BE01675F7F4FCE01E7
S11308A001960E94A50110E051C0153009F44DC015
S11308B0012F0295007FE02EF12CAE014F5D5F4FBA
S11308C068E070E0C7010E942B12AE01475D5F4FE4
S11308D068E070E0C70108960E942B1240E020E017
S11308E014C0822F90E0E1E0F0E0EC0FFD1FE80F70
S11308F0F91F3081E1E2F0E0EC0FFD1FE80FF91F72
S11309008081381301C04F5F2F5F283050F3483087
S1130910E1F415C0822F90E0E9E0F0E0EC0FFD1F58
S1130920E80FF91F3081E9E2F0E0EC0FFD1FE80F5A
S1130930F91F8081381301C04F5F2F5F02C020E090
S113094040E0283038F3483031F01F5F1B3008F4A2
S1130950ACCF80E001C081E0813021F58FEA91E0E5
S11309600E94B0118DE00E94A711BE01675E7F4F07
S1130970CE0141960E94A50110E0BE016F5E7F4F3B
S1130980C8010E94D811BE01675E7F4FC801089656
S11309900E94D81182ED91E00E94B0118DE00E9476
S11309A0A71107C081EF91E00E94B0118DE00E9471
S11309B0A711E0960FB6F894DEBF0FBECDBFDF914E
S11309C0CF911F910F91FF90EF900895CF93DF93F4
S11309D01F92CDB7DEB7853029F460EF84EB90E049
S11309E00E94BA11BE016F5F7F4F84EB90E00E94BA
S11309F003120F90DF91CF91089588ED9DE00E943E
S1130A0077188DE00E94A7118DE092E00E94B0114A
S1130A108DE00E94A7118AE192E00E94B0118DE05E
S1130A200E94A71188E292E00E94B0118DE00E941A
S1130A30A71188E492E00E94B0118DE00E94A711F2
S1130A400E945F1887EC94E00E94AA110E946D181E
S1130A508091C704833309F4CBC330F4813369F044
S1130A60823309F4B4C00895853309F43FC408F40B
S1130A70EBC3863309F43DC4089549EB54E062E0C6
S1130A8082E00E9418178091B904811149C087E55A
S1130A9092E00E94B0118DE00E94A71166EB74E011
S1130AA080E00E94FD158091B6041F928F9381E629
S1130AB092E09F938F938CED94E09F938F930E9489
S1130AC0D21C8CED94E00E94B0118DE00E94A7111D
S1130AD081E792E00E94B0118DE00E94A71182E8A4
S1130AE092E00E94B0118DE00E94A7110E945F184D
S1130AF087EC94E00E94AA110E946D188091C704AB
S1130B000F900F900F900F900F900F90803309F477
S1130B10F3C3813329F441E062E082E00E94981635
S1130B208091B904813009F0E7C38FE892E00E9414
S1130B30B0118DE00E94A71188E992E00E94B011E3
S1130B408DE00E94A71166EB74E080E00E94FD1521
S1130B508091B6041F928F9381E692E09F938F93C6
S1130B608CED94E09F938F930E94D21C8CED94E0C3
S1130B700E94B0118DE00E94A71181E792E00E94CB
S1130B80B0118DE00E94A71182E892E00E94B0119A
S1130B908DE00E94A7110E945F1887EC94E00E94E8
S1130BA0AA110E946D188091C7040F900F900F90A6
S1130BB00F900F900F90803309F49EC3813309F096
S1130BC09BC340E062E082E00E94981608958DE0A5
S1130BD00E94A7118AEA92E00E94B0118DE00E945F
S1130BE0A7118AEB92E00E94B0118DE00E94A71138
S1130BF08DE00E94A7110E945F1887EC94E00E9488
S1130C00AA110E946D188091C704833309F4A0C00F
S1130C1030F4813369F0823309F450C00895853388
S1130C2009F42AC108F4DEC0863309F46FC10895BB
S1130C3048EB54E063E083E00E9418178091B80405
S1130C408130E9F487EC92E00E94B0118DE00E94BB
S1130C50A71185ED92E00E94B0118DE00E94A711CA
S1130C6087EC94E00E94AA118091C704813309F0B3
S1130C7043C341E063E083E00E947C150895811141
S1130C803BC386EE92E00E94B0118DE00E94A71152
S1130C9085EF92E00E94B0118DE00E94A71187ECCD
S1130CA094E00E94AA118091C704813309F024C3FF
S1130CB041E063E083E00E946F15089548EB54E03F
S1130CC060E081E00E9418178091B8048130F9F443
S1130CD085E093E00E94B0118DE00E94A71185ED9C
S1130CE092E00E94B0118DE00E94A71187EC94E07D
S1130CF00E94AA118091C704813329F441E060E085
S1130D0081E00E947C158FEF8093C70408958111C0
S1130D10F3C283E193E00E94B0118DE00E94A71119
S1130D2085EF92E00E94B0118DE00E94A71187EC3C
S1130D3094E00E94AA118091C704813329F441E010
S1130D4060E081E00E946F158FEF8093C7040895DF
S1130D5048EB54E062E080E00E9418178091B804E8
S1130D608130F9F482E293E00E94B0118DE00E9498
S1130D70A71185ED92E00E94B0118DE00E94A711A9
S1130D8087EC94E00E94AA118091C704813329F46E
S1130D9041E062E080E00E947C158FEF8093C704FD
S1130DA008958111A9C280E393E00E94B0118DE0FF
S1130DB00E94A71185EF92E00E94B0118DE00E947D
S1130DC0A71187EC94E00E94AA118091C704813393
S1130DD029F441E062E080E00E946F158FEF809378
S1130DE0C704089548EB54E063E080E00E941817BC
S1130DF08091B8048130F9F48FE393E00E94B0113C
S1130E008DE00E94A71185ED92E00E94B0118DE063
S1130E100E94A71187EC94E00E94AA118091C70454
S1130E20813329F441E063E080E00E947C158FEF78
S1130E308093C704089581115FC28DE493E00E94FA
S1130E40B0118DE00E94A71185EF92E00E94B011CD
S1130E508DE00E94A71187EC94E00E94AA11809172
S1130E60C704813329F441E063E080E00E946F15F8
S1130E708FEF8093C704089548EB54E062E083E069
S1130E800E9418178091B8048130F9F48CE593E03E
S1130E900E94B0118DE00E94A71185ED92E00E949E
S1130EA0B0118DE00E94A71187EC94E00E94AA1172
S1130EB08091C704813329F441E062E083E00E9419
S1130EC07C158FEF8093C7040895811115C28AE6BB
S1130ED093E00E94B0118DE00E94A71185EF92E08B
S1130EE00E94B0118DE00E94A71187EC94E00E944B
S1130EF0AA118091C704813329F441E062E083E0C0
S1130F000E946F158FEF8093C70408958091B704F2
S1130F10882309F4B1C08DE00E94A71189E793E00A
S1130F200E94B0118DE00E94A7118091B7041F9216
S1130F308F9387E893E09F938F9388EC94E09F933B
S1130F408F930E94D21C88EC94E00E94B0118DE033
S1130F500E94A71187E993E00E94B0118DE00E94DE
S1130F60A71187EC94E00E94AA118091C7040F9006
S1130F700F900F900F900F900F90882309F4BCC12D
S1130F80813309F043C06091B704665F6093B7048E
S1130F9070E080E090E00E94911BAB01BC0188EE00
S1130FA093E00E94B5178091B7041F928F9387E84E
S1130FB093E09F938F9388EC94E09F938F930E9488
S1130FC0D21C88EC94E00E94B0118DE00E94A7111D
S1130FD087E993E00E94B0118DE00E94A7118091EF
S1130FE0B7040F900F900F900F900F900F908536CD
S1130FF008F482C184E68093B70440E050E068ECD2
S113100072E488EE93E00E94B5170895823309F0E4
S113101073C16091B7046A506093B70470E080E0D4
S113102090E00E94911BAB01BC0188EE93E00E940A
S1131030B5178091B7041F928F9387E893E09F932D
S11310408F9388EC94E09F938F930E94D21C88EC3A
S113105094E00E94B0118DE00E94A71187E993E00B
S11310600E94B0118DE00E94A7110F900F900F9075
S11310700F900F900F90089581113EC187EA93E07D
S11310800E94B0112FEF83ED90E3215080409040F7
S1131090E1F700C000008DE00E94A7118091B70421
S11310A01F928F9387E893E09F938F9388EC94E04B
S11310B09F938F930E94D21C88EC94E00E94B011FD
S11310C08DE00E94A71187E993E00E94B0118DE0A2
S11310D00E94A71187EC94E00E94AA110F900F9030
S11310E00F900F900F900F907EC0813309F043C092
S11310F06091B704665F6093B70470E080E090E0AD
S11311000E94911BAB01BC0188EE93E00E94B517CD
S11311108091B7041F928F9387E893E09F938F93F6
S113112088EC94E09F938F930E94D21C88EC94E007
S11311300E94B0118DE00E94A71187E993E00E94FC
S1131140B0118DE00E94A7118091B7040F900F9009
S11311500F900F900F900F90853608F4CDC084E661
S11311608093B70440E050E068EC72E488EE93E0CA
S11311700E94B5170895823399F56091B7046A50B7
S11311806093B70470E080E090E00E94911BAB0193
S1131190BC0188EE93E00E94B5178091B7041F92BA
S11311A08F9387E893E09F938F9388EC94E09F93C9
S11311B08F930E94D21C88EC94E00E94B0118DE0C1
S11311C00E94A71187E993E00E94B0118DE00E946C
S11311D0A7110F900F900F900F900F900F900895FC
S11311E0803309F489C08091C70481117ECF0895AA
S11311F066EB74E080E00E94FD158091B6041F92B6
S11312008F9381E692E09F938F938CED94E09F936C
S11312108F930E94D21C8CED94E00E94B0118DE05B
S11312200E94A71182E892E00E94B0118DE00E9412
S1131230A71187EC94E00E94AA110F900F900F90D1
S11312400F900F900F9008958091BA04811127C0D8
S113125086EB93E00E94B0118DE00E94A71185EC0B
S113126093E00E94B0118DE00E94A71187EC94E0F6
S11312700E94AA118DE00E94A7118091C7048133B6
S1131280D9F588ED93E00E94B01160E070E084EB42
S113129092E40E948F158AE58093BA0408958A35F2
S11312A059F588EE93E00E94B0118DE00E94A711D9
S11312B085EF93E00E94B0118DE00E94A71187ECA6
S11312C094E00E94AA118DE00E94A7118091C704A6
S11312D0813391F489E094E00E94B01160E070E001
S11312E0CB010E948F151092BA0408950E9436040F
S11312F0089586E080936500089588ED9DE00E943E
S113130077188DE00E94A7118DE092E00E94B01141
S11313108DE00E94A71189E194E00E94B0118DE054
S11313200E94A71188E492E00E94B0118DE00E940F
S1131330A7110E945F1887EC94E00E94AA110E94F2
S11313406D188091C704823309F4B5C018F4813351
S113135041F00895833309F4BEC3863309F4E6C328
S1131360089549EB54E062E082E00E9418178091EE
S1131370B904811149C087E592E00E94B0118DE063
S11313800E94A71166EB74E080E00E94FD15809135
S1131390B6041F928F9381E692E09F938F938CED16
S11313A094E09F938F930E94D21C8CED94E00E9452
S11313B0B0118DE00E94A71181E792E00E94B01164
S11313C08DE00E94A71182E892E00E94B0118DE0A6
S11313D00E94A7110E945F1887EC94E00E94AA1152
S11313E00E946D188091C7040F900F900F900F907A
S11313F00F900F90803309F49CC3813329F441E0AA
S113140062E082E00E9498168091B904813009F06C
S113141090C38FE892E00E94B0118DE00E94A71162
S113142088E992E00E94B0118DE00E94A71166EB5A
S113143074E080E00E94FD158091B6041F928F93A2
S113144081E692E09F938F938CED94E09F938F932A
S11314500E94D21C8CED94E00E94B0118DE00E9499
S1131460A71181E792E00E94B0118DE00E94A711BC
S113147082E892E00E94B0118DE00E94A7110E94C0
S11314805F1887EC94E00E94AA110E946D18809165
S1131490C7040F900F900F900F900F900F90803310
S11314A009F447C3813309F044C340E062E082E0B9
S11314B00E94981608958DE00E94A7118AEA92E08E
S11314C00E94B0118DE00E94A7118AEB92E00E9465
S11314D0B0118DE00E94A7118DE00E94A7110E9417
S11314E05F1887EC94E00E94AA110E946D18809105
S11314F0C704833309F4A0C030F4813369F0823324
S113150009F450C00895853309F42AC108F4DEC0F3
S1131510863309F46FC1089548EB54E063E083E037
S11315200E9418178091B8048130E9F487EC92E0A6
S11315300E94B0118DE00E94A71185ED92E00E94F7
S1131540B0118DE00E94A71187EC94E00E94AA11CB
S11315508091C704813309F0ECC241E063E083E089
S11315600E947C1508958111E4C286EE92E00E94E7
S1131570B0118DE00E94A71185EF92E00E94B01196
S11315808DE00E94A71187EC94E00E94AA1180913B
S1131590C704813309F0CDC241E063E083E00E94D7
S11315A06F15089548EB54E060E081E00E9418173D
S11315B08091B8048130F9F485E093E00E94B01181
S11315C08DE00E94A71185ED92E00E94B0118DE09C
S11315D00E94A71187EC94E00E94AA118091C7048D
S11315E0813329F441E060E081E00E947C158FEFB3
S11315F08093C704089581119CC283E193E00E9403
S1131600B0118DE00E94A71185EF92E00E94B01105
S11316108DE00E94A71187EC94E00E94AA118091AA
S1131620C704813329F441E060E081E00E946F1532
S11316308FEF8093C704089548EB54E062E080E0A4
S11316400E9418178091B8048130F9F482E293E083
S11316500E94B0118DE00E94A71185ED92E00E94D6
S1131660B0118DE00E94A71187EC94E00E94AA11AA
S11316708091C704813329F441E062E080E00E9454
S11316807C158FEF8093C7040895811152C280E3C3
S113169093E00E94B0118DE00E94A71185EF92E0C3
S11316A00E94B0118DE00E94A71187EC94E00E9483
S11316B0AA118091C704813329F441E062E080E0FB
S11316C00E946F158FEF8093C704089548EB54E090
S11316D063E080E00E9418178091B8048130F9F427
S11316E08FE393E00E94B0118DE00E94A71185ED75
S11316F092E00E94B0118DE00E94A71187EC94E063
S11317000E94AA118091C704813329F441E063E067
S113171080E00E947C158FEF8093C70408958111A7
S113172008C28DE493E00E94B0118DE00E94A711DD
S113173085EF92E00E94B0118DE00E94A71187EC22
S113174094E00E94AA118091C704813329F441E0F6
S113175063E080E00E946F158FEF8093C7040895C3
S113176048EB54E062E083E00E9418178091B804CB
S11317708130F9F48CE593E00E94B0118DE00E9471
S1131780A71185ED92E00E94B0118DE00E94A7118F
S113179087EC94E00E94AA118091C704813329F454
S11317A041E062E083E00E947C158FEF8093C704E0
S11317B008958111BEC18AE693E00E94B0118DE0C4
S11317C00E94A71185EF92E00E94B0118DE00E9463
S11317D0A71187EC94E00E94AA118091C704813379
S11317E029F441E062E083E00E946F158FEF80935B
S11317F0C70408958091B704882309F4B1C08DE02B
S11318000E94A71189E793E00E94B0118DE00E9425
S1131810A7118091B7041F928F9387E893E09F9359
S11318208F9388EC94E09F938F930E94D21C88EC52
S113183094E00E94B0118DE00E94A71187E993E023
S11318400E94B0118DE00E94A71187EC94E00E94E1
S1131850AA118091C7040F900F900F900F900F90D2
S11318600F90882309F465C1813309F043C0609166
S1131870B704665F6093B70470E080E090E00E9474
S1131880911BAB01BC0188EE93E00E94B5178091D7
S1131890B7041F928F9387E893E09F938F9388EC0C
S11318A094E09F938F930E94D21C88EC94E00E9452
S11318B0B0118DE00E94A71187E993E00E94B01156
S11318C08DE00E94A7118091B7040F900F900F90A4
S11318D00F900F900F90853608F42BC184E6809307
S11318E0B70440E050E068EC72E488EE93E00E94B4
S11318F0B5170895823309F01CC16091B7046A508A
S11319006093B70470E080E090E00E94911BAB010B
S1131910BC0188EE93E00E94B5178091B7041F9232
S11319208F9387E893E09F938F9388EC94E09F9341
S11319308F930E94D21C88EC94E00E94B0118DE039
S11319400E94A71187E993E00E94B0118DE00E94E4
S1131950A7110F900F900F900F900F900F90089574
S11319608111E7C087EA93E00E94B0112FEF83ED65
S113197090E3215080409040E1F700C000008DE0EA
S11319800E94A7118091B7041F928F9387E893E078
S11319909F938F9388EC94E09F938F930E94D21C23
S11319A088EC94E00E94B0118DE00E94A71187E9B1
S11319B093E00E94B0118DE00E94A71187EC94E09F
S11319C00E94AA110F900F900F900F900F900F90FC
S11319D07DC0813309F043C06091B704665F6093B2
S11319E0B70470E080E090E00E94911BAB01BC0161
S11319F088EE93E00E94B5178091B7041F928F93ED
S1131A0087E893E09F938F9388EC94E09F938F9360
S1131A100E94D21C88EC94E00E94B0118DE00E94D8
S1131A20A71187E993E00E94B0118DE00E94A711ED
S1131A308091B7040F900F900F900F900F900F901C
S1131A40853608F476C084E68093B70440E050E01D
S1131A5068EC72E488EE93E00E94B517089582332F
S1131A6099F56091B7046A506093B70470E080E020
S1131A7090E00E94911BAB01BC0188EE93E00E94B0
S1131A80B5178091B7041F928F9387E893E09F93D3
S1131A908F9388EC94E09F938F930E94D21C88ECE0
S1131AA094E00E94B0118DE00E94A71187E993E0B1
S1131AB00E94B0118DE00E94A7110F900F900F901B
S1131AC00F900F900F900895803399F18091C7047F
S1131AD081117FCF089566EB74E080E00E94FD15CC
S1131AE08091B6041F928F9381E692E09F938F9327
S1131AF08CED94E09F938F930E94D21C8CED94E024
S1131B000E94B0118DE00E94A71182E892E00E9429
S1131B10B0118DE00E94A71187EC94E00E94AA11F5
S1131B200F900F900F900F900F900F9086E080937E
S1131B306500089580E294E00E94B0118DE00E9457
S1131B40A71108958CE394E00E94671480EC0E942E
S1131B5083138DE494E00E9467142FEF83ED90E3E8
S1131B60215080409040E1F700C00000089566EBEA
S1131B7074E080E00E94FD158091B6041F928F935B
S1131B8081E692E09F938F938CED94E09F938F93E3
S1131B900E94D21C8CED94E00E94B0118DE00E9452
S1131BA0A7110F900F900F900F900F900F90089522
S1131BB08DE00E94A7110E94B70D8BE594E00E946E
S1131BC0B0118DE00E94A71187EC94E00E94AA1145
S1131BD08091C704803311F40E947E18089566EB47
S1131BE074E080E00E94FD156BE081E00E944015E6
S1131BF06091B60470E080E090E00E94861408953D
S1131C000E94D91480E80E94831388E694E00E941D
S1131C1051140E94EF0D80EC0E9483138BE594E035
S1131C200E94511406C081E690E00E949F120E9417
S1131C30EF0D809161008F3FB1F3803311F40E9466
S1131C40D9140E947E180E94D91408958FEF8093AE
S1131C506400809363008093620080936100089520
S1131C600E94260E80E09EE00E9477180E945F1872
S1131C700E94D9148DE092E00E94511480EC0E94DD
S1131C80831387E794E00E9451140E94260E0CC02F
S1131C9080916100803321F48FEF8093610008C04C
S1131CA084E690E00E949F12809164008F3F81F34C
S1131CB00E946D1880916400823309F44AC018F4BC
S1131CC0813341F00895833309F407C3863309F45B
S1131CD037C308950E94D91487E894E00E946714DA
S1131CE080EC0E94831366EB74E080E00E94FD1593
S1131CF088E994E00E9467146CE082E00E94401539
S1131D006091B60470E080E090E00E9486141CC0EC
S1131D1080E690E00E949F1266EB74E080E00E94EF
S1131D20FD156CE082E00E9440156091B60470E0FD
S1131D3080E090E00E94861480916000803321F45A
S1131D408FEF809360000895809160008F3F01F3CE
S1131D5008950E94D9148AEA92E00E94671480ECE4
S1131D600E9483138AEB92E00E94671480E09EE055
S1131D700E9477180E945F180CC083E690E00E94CE
S1131D809F1280916100803321F48FEF8093610072
S1131D9004C0809163008F3F81F30E946D1880918D
S1131DA06300833309F4A6C030F4813369F08233CD
S1131DB009F454C00895853309F434C108F4E6C025
S1131DC0863309F47BC1089548EB54E063E083E073
S1131DD00E9418170E94D9148091B8048130F1F43C
S1131DE087EC92E00E94671480EC0E94831385EDD7
S1131DF092E00E94671404C082E690E00E949F1261
S1131E00809162008F3FC1F3813329F441E063E0A4
S1131E1083E00E947C150E94260E0895811193C2CE
S1131E2086EE92E00E94671480EC0E94831385EF93
S1131E3092E00E94671404C082E690E00E949F1220
S1131E40809162008F3FC1F3813329F441E063E064
S1131E5083E00E946F150E94260E089548EB54E01B
S1131E6064E083E00E9418170E94D9148091B8049A
S1131E708130F9F485E093E00E94671480EC0E94BD
S1131E80831385ED92E00E94671404C082E690E01B
S1131E900E949F12809162008F3FC1F3813329F425
S1131EA041E064E083E00E947C158FEF8093620040
S1131EB00895811148C283E193E00E94671480EC85
S1131EC00E94831385EF92E00E94671404C082E6A7
S1131ED090E00E949F12809162008F3FC1F3813392
S1131EE029F441E064E083E00E946F158FEF809352
S1131EF06200089548EB54E062E080E00E94181705
S1131F000E94D9148091B8048130F9F482E293E0FC
S1131F100E94671480EC0E94831385ED92E00E9476
S1131F20671404C082E690E00E949F1280916200D0
S1131F308F3FC1F3813329F441E062E080E00E94E5
S1131F407C158FEF8093620008958111FCC180E3BA
S1131F5093E00E94671480EC0E94831385EF92E063
S1131F600E94671404C082E690E00E949F12809150
S1131F7062008F3FC1F3813329F441E062E080E0E5
S1131F800E946F158FEF80936200089548EB54E030
S1131F9063E080E00E9418170E94D9148091B8046D
S1131FA08130F9F48FE393E00E94671480EC0E947F
S1131FB0831385ED92E00E94671404C082E690E0EA
S1131FC00E949F12809162008F3FC1F3813329F4F4
S1131FD041E063E080E00E947C158FEF8093620013
S1131FE008958111B0C18DE493E00E94671480ECE0
S1131FF00E94831385EF92E00E94671404C082E676
S113200090E00E949F12809162008F3FC1F3813360
S113201029F441E063E080E00E946F158FEF809324
S11320206200089548EB54E062E083E00E941817D0
S11320300E94D9148091B8048130F9F48CE593E0BE
S11320400E94671480EC0E94831385ED92E00E9445
S1132050671404C082E690E00E949F12809162009F
S11320608F3FC1F3813329F441E062E083E00E94B1
S11320707C158FEF809362000895811164C18AE614
S113208093E00E94671480EC0E94831385EF92E032
S11320900E94671404C082E690E00E949F1280911F
S11320A062008F3FC1F3813329F441E062E083E0B1
S11320B00E946F158FEF8093620008950E94D914D7
S11320C08091B704882309F482C089E793E00E94D1
S11320D067142FEF83ED90E3215080409040E1F7A7
S11320E000C000000E94D91486EA94E00E945114B2
S11320F06DE081E00E9440156091B70470E080E0DB
S113210090E00E94861480EC0E94831387E993E098
S11321100E94671456C082E690E00E949F1280914C
S11321206200813359F56091B704665F6093B70428
S113213070E080E090E00E94911BAB01BC0188EE4E
S113214093E00E94B5176DE081E00E944015609114
S1132150B70470E080E090E00E9486148091B70498
S1132160853678F184E68093B70440E050E068EC6B
S113217072E488EE93E00E94B51723C08233E1F441
S11321806091B7046A506093B70470E080E090E017
S11321900E94911BAB01BC0188EE93E00E94B5172D
S11321A06DE081E00E9440156091B70470E080E02A
S11321B090E00E94861405C0803319F40E94D9145B
S11321C00895809162008F3F09F4A5CF089580910E
S11321D0B8048111B8C087EA93E00E9467142FEF16
S11321E083ED90E3215080409040E1F700C000006F
S11321F00E94D91486EA94E00E9451146DE081E0B3
S11322000E9440156091B70470E080E090E00E9465
S1132210861480EC0E94831387E993E00E9467147C
S113222056C082E690E00E949F1280916200813342
S113223059F56091B704665F6093B70470E080E07D
S113224090E00E94911BAB01BC0188EE93E00E94D8
S1132250B5176DE081E00E9440156091B70470E00D
S113226080E090E00E9486148091B704853678F16E
S113227084E68093B70440E050E068EC72E488EEB2
S113228093E00E94B51723C08233E1F46091B70450
S11322906A506093B70470E080E090E00E94911B64
S11322A0AB01BC0188EE93E00E94B5176DE081E0BC
S11322B00E9440156091B70470E080E090E00E94B5
S11322C0861405C0803319F40E94D91408958091AE
S11322D062008F3F09F4A5CF08950E94D91466EBDC
S11322E074E080E00E94FD1580E80E94831388E971
S11322F094E00E9451146BE081E00E9440156091CB
S1132300B60470E080E090E00E94861483E60E94A8
S11323101B1480EC0E94831382E892E00E946714ED
S113232006C081E690E00E949F120E94EF0D80910A
S113233061008F3FB1F3803331F40E94D9140895C2
S113234086E08093650008950E94341A08950E94DF
S1132350451A08950E94491A08950E94671A08951B
S11323600E94511A089541E00E94181608950E948F
S1132370A91908951F93CF93DF93D82FC62F192F30
S113238010650E94B519812F0E94D8198D2F0E94C3
S1132390021A8C2F0E94021A0E94D1198FE19EE426
S11323A00197F1F700C00000DF91CF911F910895CC
S11323B00F931F93CF93DF9361157105F9F08B0190
S11323C0D82FC92FC0650E94B5198C2F0E94D81927
S11323D08D2F0E94021AC0E007C0F801EC0FF11D16
S11323E080810E94021ACF5FC830B8F30E94D119CD
S11323F08FE19EE40197F1F700C00000DF91CF91D7
S11324001F910F9108950F931F93CF93DF9361153D
S11324107105E1F08B01D82FC92FC0650E94B51951
S11324208C2F0E94D8198D2F0E94021A0E94C31962
S11324308C2F0E94ED19C8010E94241A0E94D11900
S11324408FE19EE40197F1F700C00000DF91CF9186
S11324501F910F910895EF92FF920F931F93CF93C3
S1132460DF934115510581F1611522E0720760F592
S11324708A017B01D82FC92FC0650E94B5198C2F02
S11324800E94D8198D2F0E94021A0E94C3198C2F02
S11324900E94ED19C0E0D0E006C0C8018C0F9D1F5A
S11324A00E940E1A2196C7010197C817D907A8F3ED
S11324B0800F911F0E94241A0E94D1198FE19EE47B
S11324C00197F1F700C00000DF91CF911F910F91A8
S11324D0FF90EF90089541E064E081E00E941816B7
S11324E041E065E081E00E94181641E066E081E089
S11324F00E94181640E063E082E00E94181640E053
S113250064E082E00E94181640E065E082E00E94E8
S1132510181640E066E082E00E94181663E082E04C
S11325200E94531764E082E00E94531765E082E042
S11325300E94531766E082E00E94531708956F9239
S11325407F928F929F92AF92BF92CF92DF92EF923F
S1132550FF920F931F93CF93DF93CDB7DEB76B97A3
S11325600FB6F894DEBF0FBECDBF009709F47EC04E
S11325705C0181E0888F898F8A8F34E03D8B25E070
S11325802E8B96E09F8B82E0898B8A8B8B8B8C8B36
S113259083E08D873E872F87988B8CE0E6E6F0E01A
S11325A0DE01119601900D928A95E1F78FEFF50106
S11325B08083812C57C0C82CD12CE5E1F0E0EC0FCE
S11325C0FD1FEC0DFD1D6080E8E1F0E0EC0FFD1F48
S11325D0EC0DFD1D708040E0662D872D0E9498163D
S11325E010E038C0E12EF12CEDE0F0E0EC0FFD1F1F
S11325F0EE0DFF1D0081E1E1F0E0EC0FFD1FEE0D9B
S1132600FF1D9080AE01455E5F4F602F892D0E94B3
S113261018178B8D81111DC007C0AE01455E5F4F39
S1132620602F892D0E9418178B8D8823B1F3C70161
S1132630880F991FE80EF91E81E090E08C0F9D1F12
S1132640E80EF91EF701EC0DFD1D8081F501808374
S11326500DC01F5F143030F241E0662D872D0E94BB
S113266098168394F2E0F81508F0A5CF6B960FB690
S1132670F894DEBF0FBECDBFDF91CF911F910F91B4
S1132680FF90EF90DF90CF90BF90AF909F908F908E
S11326907F906F900895CF93C82F80FF06C041E0CC
S11326A064E080E00E94981605C040E064E080E0A9
S11326B00E949816C1FF06C041E065E080E00E94D8
S11326C0981605C040E065E080E00E949816C2FFBD
S11326D006C041E066E080E00E94981605C040E034
S11326E066E080E00E949816C3FF06C041E067E000
S11326F080E00E94981605C040E067E080E00E94F8
S11327009816CF910895CF93C82F40E061E081E0FF
S11327100E94981640E062E081E00E9498168C2F97
S113272082958F700E944B1341E063E081E00E9428
S113273098168FE99FE00197F1F700C0000040E090
S113274063E081E00E9498168C2F0E944B1341E0B5
S113275063E081E00E9498168FE99FE00197F1F70A
S113276000C0000040E063E081E00E949816CF9131
S1132770089541E061E081E00E94181641E062E0C2
S113278081E00E94181641E063E081E00E9418167F
S113279041E064E080E00E94181641E065E080E0DA
S11327A00E94181641E066E080E00E94181641E09D
S11327B067E080E00E9418162FE785EB91E0215036
S11327C080409040E1F700C0000040E061E081E01B
S11327D00E94981640E062E081E00E94981682E030
S11327E00E944B1341E063E081E00E9498168FE958
S11327F09FE00197F1F700C0000040E063E081E052
S11328000E94981688E20E94831390EF9A95F1F73C
S11328108CE00E94831320EF2A95F1F781E00E9457
S113282083138FE39FE10197F1F700C0000086E076
S11328300E9483130895CF93C82F41E061E081E0A3
S11328400E94981640E062E081E00E9498168C2F66
S113285082958F700E944B1341E063E081E00E94F7
S113286098168FE99FE00197F1F700C0000040E05F
S113287063E081E00E9498168C2F0E944B1341E084
S113288063E081E00E9498168FE99FE00197F1F7D9
S113289000C0000040E063E081E00E949816CF9100
S11328A008950F931F93CF93009729F40CC00E94AF
S11328B01B14CF5F02C08C01C0E0F801EC0FF11DC6
S11328C080818111F4CFCF911F910F9108950F93BF
S11328D01F93CF93009771F415C00E941B14CF5F10
S11328E02FEF80E792E0215080409040E1F700C054
S11328F0000002C08C01C0E0F801EC0FF11D8081E2
S11329008111EBCFCF911F910F9108950F931F93D6
S1132910CF93DF9300D000D01F92CDB7DEB7262F20
S113292010E008C01F5FEDEC6E9F612D11246695C9
S1132930669566956111F6CF00E01AC0622F2AE011
S113294030E040E050E00E94B01C732F842F952F9C
S1132950A02FB0E01196E12FF0E0EA1BFB0B41E061
S113296050E04C0F5D1FE40FF51F605D60830F5F47
S1132970011720F3E1E0F0E0EC0FFD1FE10FF11D82
S1132980108210E003C00E941B141F5FE1E0F0E01E
S1132990EC0FFD1FE10FF11D80818111F4CF0F9029
S11329A00F900F900F900F90DF91CF911F910F9187
S11329B0089540E061E081E00E94981640E062E002
S11329C081E00E94981680E00E944B1341E063E08E
S11329D081E00E9498168FE99FE00197F1F700C00B
S11329E0000040E063E081E00E94981681E00E94CC
S11329F04B1341E063E081E00E9498168FE99FE069
S1132A000197F1F700C0000040E063E081E00E941C
S1132A1098160895CF93C82F40E061E081E00E94AA
S1132A20981640E062E081E00E9498168C2F82950F
S1132A308F700E944B1341E063E081E00E9498167E
S1132A408FE99FE00197F1F700C0000040E063E0E8
S1132A5081E00E9498168C2F0E944B1341E063E0A2
S1132A6081E00E9498168FE99FE00197F1F700C07A
S1132A70000040E063E081E00E949816CF91089541
S1132A80CF93DF936832A0F4C62FD82F82E00E9440
S1132A908313D13019F0D23031F00AC08C2F806802
S1132AA00E94831305C080E48C0F80680E94831306
S1132AB0DF91CF9108952FEF83EC99E0215080406E
S1132AC09040E1F700C0000080E10E940A158AE20C
S1132AD00E941B14089541E00E9418160895413085
S1132AE019F0423029F0089541E00E9498160895A3
S1132AF040E00E9498160895413019F0423029F0C0
S1132B00089540E00E949816089541E00E949816A6
S1132B10089541E00E9418160E948F17089520E03E
S1132B2030E040E250E40E94431C20E030EC48E2F4
S1132B3054E40E947F1A20E030E044EB52E40E9407
S1132B40F01AAB01BC0182E390E00E9401180895E1
S1132B500E94B3000E94D9140E94260E0E949A0D6E
S1132B600E94A20D0E94FC03809165000E94E6046D
S1132B700E940D1980916500833019F40E94FD04B0
S1132B8009C0843019F40E947D0904C0823011F414
S1132B900E94300E0E941B19DDCF823059F0833021
S1132BA081F08130A1F487B1806487B987B18F77D0
S1132BB087B90DC087B18F7B87B987B18F7787B904
S1132BC006C087B1806487B987B1806887B987B147
S1132BD08F7D87B986B18F7D86B986B1877F86B9A7
S1132BE086B1846086B986B1826086B986B1816017
S1132BF086B986B1806886B9089561157105B9F002
S1132C0097B1907E97B997B1892B87B986B18064C3
S1132C1086B9349BFECF84B195B1969587959695E8
S1132C208795FB019183808386B1806186B908957D
S1132C30843008F07CC0683008F079C0423008F075
S1132C4076C0813019F130F08230E1F1833009F43B
S1132C5054C00895442371F0413009F068C02AB388
S1132C6081E090E002C0880F991F6A95E2F7822BF9
S1132C708ABB08952AB381E090E002C0880F991FAF
S1132C806A95E2F7809582238ABB0895442371F004
S1132C90413009F04CC027B381E090E002C0880FB6
S1132CA0991F6A95E2F7822B87BB089527B381E0C9
S1132CB090E002C0880F991F6A95E2F780958223FD
S1132CC087BB0895442369F0413089F524B381E03A
S1132CD090E002C0880F991F6A95E2F7822B84BBAB
S1132CE0089524B381E090E002C0880F991F6A958B
S1132CF0E2F78095822384BB0895442369F0413030
S1132D00B1F421B381E090E002C0880F991F6A9565
S1132D10E2F7822B81BB089521B381E090E002C0E9
S1132D20880F991F6A95E2F78095822381BB0895E5
S1132D30843008F07CC0683008F079C0423008F074
S1132D4076C0813019F130F08230E1F1833009F43A
S1132D5054C00895442371F0413009F068C02BB386
S1132D6081E090E002C0880F991F6A95E2F7822BF8
S1132D708BBB08952BB381E090E002C0880F991FAC
S1132D806A95E2F7809582238BBB0895442371F002
S1132D90413009F04CC028B381E090E002C0880FB4
S1132DA0991F6A95E2F7822B88BB089528B381E0C6
S1132DB090E002C0880F991F6A95E2F780958223FC
S1132DC088BB0895442369F0413089F525B381E037
S1132DD090E002C0880F991F6A95E2F7822B85BBA9
S1132DE0089525B381E090E002C0880F991F6A9589
S1132DF0E2F78095822385BB0895442369F041302E
S1132E00B1F422B381E090E002C0880F991F6A9563
S1132E10E2F7822B82BB089522B381E090E002C0E6
S1132E20880F991F6A95E2F78095822382BB0895E3
S1132E308430C0F56830B0F54115510599F1813001
S1132E4089F028F08230C9F0833011F1089589B3F4
S1132E5090E002C0959587956A95E2F78170FA0132
S1132E608083089586B390E002C0959587956A950E
S1132E70E2F78170FA018083089583B390E002C081
S1132E80959587956A95E2F78170FA018083089594
S1132E9080B390E002C0959587956A95E2F78170BA
S1132EA0FA01808308958430A8F5683098F581305C
S1132EB089F028F08230C9F0833011F108952BB3E2
S1132EC081E090E002C0880F991F6A95E2F7822B97
S1132ED08BBB089528B381E090E002C0880F991F4E
S1132EE06A95E2F7822B88BB089525B381E090E0D0
S1132EF002C0880F991F6A95E2F7822B85BB08955B
S1132F0022B381E090E002C0880F991F6A95E2F72E
S1132F10822B82BB08958FB780688FBF08958EB5CA
S1132F2080618EBD8EB588608EBD8FB582608FBD89
S1132F308FB58E7F8FBD8FB580688FBD8FB58F7B2A
S1132F408FBD08958EB580618EBD8EB588608EBDAF
S1132F508FB582608FBD8FB58E7F8FBD8FB5806238
S1132F608FBD8FB58F7E8FBD0895CF92DF92EF9284
S1132F70FF92CF93DF93EC016A017B0120E030E004
S1132F8048EC52E4C701B6010E94EB1A181694F1FA
S1132F909E0140E050E060E970ED83E090E00E9423
S1132FA0B01C2150310937BD26BD66B577B56F5FBA
S1132FB07F4F80E090E00E94911BA70196010E9440
S1132FC0431C20E030E048EC52E40E94F01A20E078
S1132FD030E040E85FE30E947E1A0E94621B7BBDE2
S1132FE06ABD8EB581608EBD8EB582608EBD8EB594
S1132FF08B7F8EBDDF91CF91FF90EF90DF90CF90CC
S11330000895CF92DF92EF92FF92CF93DF93EC017A
S11330106A017B0120E030E048EC52E4C701B601CC
S11330200E94EB1A181694F19E0140E050E060E90A
S113303070ED83E090E00E94B01C2150310937BD4F
S113304026BD66B577B56F5F7F4F80E090E00E9444
S1133050911BA70196010E94431C20E030E048EC3C
S113306052E40E94F01A20E030E040E85FE30E945E
S11330707E1A0E94621B79BD68BD8EB581608EBDCB
S11330808EB582608EBD8EB58B7F8EBDDF91CF9164
S1133090FF90EF90DF90CF90089583B78F7B83BF2D
S11330A083B7886083BF83B78F7E83BF83B78F7DE9
S11330B083BF89B7826089BF89EF8CBF089583B7C6
S11330C0816083BF83B7826083BF83B78B7F83BFF5
S11330D01092BC041092BB04089583B78E7F83BF03
S11330E083B78D7F83BF83B78B7F83BF089500979A
S11330F021F09093BE048093BD04089588B7826044
S113310088BF88B7816088BF08951F920F920FB659
S11331100F9211242F933F934F935F936F937F9359
S11331208F939F93AF93BF93EF93FF938091BB04CF
S11331309091BC0401969093BC048093BB04883E98
S1133140934069F481E782BF1092BC041092BB04DF
S1133150E091BF04F091C004309709F00995FF9104
S1133160EF91BF91AF919F918F917F916F915F91FB
S11331704F913F912F910F900FBE0F901F90189574
S11331801F920F920FB60F9211242F933F934F93D8
S11331905F936F937F938F939F93AF93BF93EF93BB
S11331A0FF938091BB049091BC0401969093BC045E
S11331B08093BB048838934169F41092BC04109244
S11331C0BB04E091BD04F091BE04309719F0099559
S11331D00E947E18FF91EF91BF91AF919F918F91C3
S11331E07F916F915F914F913F912F910F900FBEFF
S11331F00F901F90189585B58F7B85BD85B5886028
S113320085BD85B58F7E85BD85B58F7D85BD89B727
S1133210806889BF89EF83BD089585B5816085BDC8
S113322085B5826085BD85B58B7F85BD1092C2044E
S11332301092C104089585B58E7F85BD85B58D7FB7
S113324085BD85B58B7F85BD0895009721F090934A
S1133250C4048093C304089588B7806888BF88B77E
S1133260806488BF08951F920F920FB60F921124A5
S11332702F933F934F935F936F937F938F939F937A
S1133280AF93BF93EF93FF938091C1049091C204D5
S113329001969093C2048093C104883E934069F4DC
S11332A081E784BD1092C2041092C104E091C50468
S11332B0F091C604309709F00995FF91EF91BF9101
S11332C0AF919F918F917F916F915F914F913F91BA
S11332D02F910F900FBE0F901F9018951F920F9271
S11332E00FB60F9211242F933F934F935F936F93D5
S11332F07F938F939F93AF93BF93EF93FF938091AB
S1133300C1049091C20401969093C2048093C104B5
S11333108838934169F41092C2041092C104E09178
S1133320C304F091C404309719F009950E942C1934
S1133330FF91EF91BF91AF919F918F917F916F9189
S11333405F914F913F912F910F900FBE0F901F905F
S113335018958CE080B981B18D7F81B981B18E7F60
S113336081B986B7846086BF089586B7806286BFB8
S113337086B7806886BF06B607FEFDCF81B1887F19
S11333808830E1F7089586B7806286BF86B7806883
S113339086BF06B607FEFDCF81B1887F8031E1F795
S11333A0089586B7806186BF86B7806886BF089512
S11333B0882394F0880F83B983B18E7F83B986B74D
S11333C08F7D86BF86B7806886BF06B607FEFDCFB1
S11333D081B1887F8831E1F70895882394F0880FBC
S11333E083B983B1816083B986B78F7D86BF86B781
S11333F0806886BF06B607FEFDCF81B1887F803422
S1133400E1F7089583B986B7806886BF06B607FEDC
S1133410FDCF81B1887F8832E1F70895FC01892BC3
S113342091F096B7906496BF96B7906896BF06B62B
S113343007FEFDCF91B1987F9035E1F783B180838A
S113344086B78F7B86BF0895FC01892B61F096B700
S1133450906896BF06B607FEFDCF91B1987F983568
S1133460E1F783B1808308958BB18D7F8BB987E6B3
S113347089B98AB18B7F8AB986E880BD8AB18061B7
S11334808AB98AB188608AB908958CB95D9BFECFE8
S11334900895009729F05F9BFECF2CB1FC01208397
S11334A008950F931F93CF93009729F40CC00E94A3
S11334B0451ACF5F02C08C01C0E0F801EC0FF11D8A
S11334C080818111F4CFCF911F910F9108950097BE
S11334D069F408952436310580F4EFE9FFE031976B
S11334E0F1F700C000002F5F3F4F02C020E030E042
S11334F05F9BF0CF2CB1FC01208308955058BB276B
S1133500AA270E94961A0C94091C0E94FB1B38F0EF
S11335100E94021C20F039F49F3F19F426F40C9405
S1133520F81B0EF4E095E7FB0C94F21BE92F0E94C4
S11335301A1C58F3BA17620773078407950720F01B
S113354079F4A6F50C943C1C0EF4E0950B2EBA2FDE
S1133550A02D0B01B90190010C01CA01A001112495
S1133560FF27591B99F0593F50F4503E68F11A1641
S1133570F040A22F232F342F4427585FF3CF4695D2
S113358037952795A795F0405395C9F77EF41F16F4
S1133590BA0B620B730B840BBAF09150A1F0FF0FBE
S11335A0BB1F661F771F881FC2F70EC0BA0F621FAA
S11335B0731F841F48F4879577956795B795F7959A
S11335C09E3F08F0B0CF9395880F08F09927EE0F2F
S11335D09795879508950E94CE1B08F481E008957D
S11335E00E94041B0C94091C0E94021C58F00E94A7
S11335F0FB1B40F029F45F3F29F00C94F21B51119E
S11336000C943D1C0C94F81B0E941A1C68F399231B
S1133610B1F3552391F3951B550BBB27AA276217CA
S11336207307840738F09F5F5F4F220F331F441FD7
S1133630AA1FA9F335D00E2E3AF0E0E832D091500B
S11336405040E695001CCAF72BD0FE2F29D0660FF8
S1133650771F881FBB1F261737074807AB07B0E83B
S113366009F0BB0B802DBF01FF2793585F4F3AF041
S11336709E3F510578F00C94F21B0C943D1C5F3F67
S1133680E4F3983ED4F3869577956795B795F795C7
S11336909F5FC9F7880F911D9695879597F90895AF
S11336A0E1E0660F771F881FBB1F6217730784074B
S11336B0BA0720F0621B730B840BBA0BEE1F88F75A
S11336C0E09508950E94221C88F09F5798F0B92F26
S11336D09927B751B0F0E1F0660F771F881F991F43
S11336E01AF0BA95C9F714C0B13091F00E943C1C8D
S11336F0B1E008950C943C1C672F782F8827B85F9D
S113370039F0B93FCCF3869577956795B395D9F79A
S11337103EF490958095709561957F4F8F4F9F4FA4
S11337200895E89409C097FB3EF4909580957095B0
S113373061957F4F8F4F9F4F9923A9F0F92F96E9F9
S1133740BB279395F695879577956795B795F1116E
S1133750F8CFFAF4BB0F11F460FF1BC06F5F7F4F0B
S11337608F4F9F4F16C0882311F096E911C077231D
S113377021F09EE8872F762F05C0662371F096E826
S1133780862F70E060E02AF09A95660F771F881FF5
S1133790DAF7880F9695879597F90895990F000899
S11337A0550FAA0BE0E8FEEF16161706E807F9070F
S11337B0C0F012161306E407F50798F0621B730BAA
S11337C0840B950B39F40A2661F0232B242B252B2B
S11337D021F408950A2609F4A140A6958FEF811DCE
S11337E0811D089597F99F6780E870E060E008956F
S11337F09FEF80EC089500240A9416161706180605
S11338000906089500240A941216130614060506E0
S11338100895092E0394000C11F4882352F0BB0F71
S113382040F4BF2B11F460FF04C06F5F7F4F8F4FD4
S11338309F4F089557FD9058440F551F59F05F3F0F
S113384071F04795880F97FB991F61F09F3F79F0BE
S113385087950895121613061406551FF2CF469540
S1133860F1DF08C0161617061806991FF1CF8695C2
S11338707105610508940895E894BB2766277727A6
S1133880CB0197F908950E94561C0C94091C0E94C0
S1133890FB1B38F00E94021C20F0952311F00C94BD
S11338A0F21B0C94F81B11240C943D1C0E941A1C4E
S11338B070F3959FC1F3950F50E0551F629FF0017F
S11338C0729FBB27F00DB11D639FAA27F00DB11D98
S11338D0AA1F649F6627B00DA11D661F829F222721
S11338E0B00DA11D621F739FB00DA11D621F839FA8
S11338F0A00D611D221F749F3327A00D611D231F7E
S1133900849F600D211D822F762F6A2F11249F57CB
S113391050409AF0F1F088234AF0EE0FFF1FBB1FCE
S1133920661F771F881F91505040A9F79E3F51058D
S113393080F00C94F21B0C943D1C5F3FE4F3983E22
S1133940D4F3869577956795B795F795E7959F5F37
S1133950C1F7FE2B880F911D9695879597F90895C9
S1133960A1E21A2EAA1BBB1BFD010DC0AA1FBB1F7F
S1133970EE1FFF1FA217B307E407F50720F0A21BF1
S1133980B30BE40BF50B661F771F881F991F1A945E
S113399069F760957095809590959B01AC01BD0188
S11339A0CF010895AEE0B0E0E8EDFCE10C94931F84
S11339B00D891E8986E08C831A8309838FEF9FE724
S11339C09E838D83AE01475E5F4F6F89788DCE01F4
S11339D001960E94F41CEF81F885E00FF11F10821C
S11339E02E96E4E00C94AF1FABE0B0E0EAEFFCE10C
S11339F00C94851F6C017B018A01FC0117821682DD
S1133A00838181FFCCC1CE0101963C01F6019381F3
S1133A10F70193FD859193FF81917F01882309F438
S1133A20BAC1853239F493FD859193FF81917F0169
S1133A30853229F4B60190E00E94EB1EE7CF912C69
S1133A40212C312CFFE1F315D8F08B3279F038F4C6
S1133A50803279F08332A1F4232D20611DC08D3290
S1133A6061F0803369F4232D216016C0832D8260B8
S1133A70382EE32DE4603E2E2AC0F32DF8601DC0DD
S1133A8037FC2DC020ED280F2A3040F08E32B9F4D7
S1133A9036FC81C1232D2064322E19C036FE06C0A7
S1133AA08AE0989E200D1124922E11C0EAE02E9EE9
S1133AB0200D1124222EF32DF0623F2E08C08C36E7
S1133AC021F4832D8068382E02C0883641F4F70132
S1133AD093FD859193FF81917F018111B3CF982F3D
S1133AE09F7D9554933028F40C5F1F4F9FE3998377
S1133AF00DC0833631F0833771F0833509F059C036
S1133B0021C0F801808189830E5F1F4F882483942C
S1133B10912C530113C02801F2E04F0E511CF801FF
S1133B20A080B18036FE03C0692D70E002C06FEF43
S1133B307FEFC5010E94E01E4C018201F32DFF7747
S1133B403F2E16C0280122E0420E511CF801A0802D
S1133B50B18036FE03C0692D70E002C06FEF7FEFC5
S1133B60C5010E94D51E4C01F32DF0683F2E820141
S1133B7033FC1BC0822D90E088169906B0F4B60180
S1133B8080E290E00E94EB1E2A94F4CFF50137FC0A
S1133B90859137FE81915F01B60190E00E94EB1E92
S1133BA021102A9421E0821A91088114910471F75A
S1133BB0E8C0843611F0893641F5F80137FE07C0B4
S1133BC060817181828193810C5F1F4F08C0608185
S1133BD07181072E000C880B990B0E5F1F4FF32D7C
S1133BE0FF763F2E97FF09C090958095709561955B
S1133BF07F4F8F4F9F4FF0683F2E2AE030E0A301A4
S1133C000E94271F882E861845C0853731F4232D3E
S1133C102F7EB22E2AE030E025C0932D997FB92E55
S1133C208F36C1F018F4883579F0B5C0803719F0B3
S1133C30883721F0B0C0E92FE061BE2EB4FE0DC07C
S1133C40FB2DF460BF2E09C034FE0AC0292F266064
S1133C50B22E06C028E030E005C020E130E002C00A
S1133C6020E132E0F801B7FE07C0608171818281F2
S1133C7093810C5F1F4F06C06081718180E090E0EA
S1133C800E5F1F4FA3010E94271F882E8618FB2D4D
S1133C90FF773F2E36FE0DC0232D2E7FA22E8914D2
S1133CA058F434FE0BC032FC09C0832D8E7EA82E3E
S1133CB005C0B82CA32C03C0B82C01C0B92CA4FE99
S1133CC00FC0FE01E80DF11D8081803321F49A2D8F
S1133CD0997EA92E09C0A2FE06C0B394B39404C071
S1133CE08A2D867809F0B394A3FC11C0A0FE06C007
S1133CF0B21488F4280C922C9B180EC0B21460F4F1
S1133D00B60180E290E00E94EB1EB394F7CFB214A8
S1133D1018F42B1802C0982C212CA4FE10C0B60154
S1133D2080E390E00E94EB1EA2FE17C0A1FC03C03A
S1133D3088E790E002C088E590E0B6010CC08A2DC7
S1133D40867859F0A1FE02C08BE201C080E2A7FC94
S1133D508DE2B60190E00E94EB1E891438F4B6019E
S1133D6080E390E00E94EB1E9A94F7CF8A94F301CB
S1133D70E80DF11D8081B60190E00E94EB1E8110D8
S1133D80F5CF222009F442CEB60180E290E00E94F1
S1133D90EB1E2A94F6CFF6018681978102C08FEF3D
S1133DA09FEF2B96E2E10C94A11FFC01059061505A
S1133DB070400110D8F7809590958E0F9F1F08953D
S1133DC0FC016150704001900110D8F780959095E6
S1133DD08E0F9F1F08950F931F93CF93DF93FB01C3
S1133DE0238121FD03C08FEF9FEF2CC022FF16C05B
S1133DF046815781248135814217530744F4A081B9
S1133E00B1819D012F5F3F4F318320838C932681A5
S1133E1037812F5F3F4F3783268314C08B01EC011A
S1133E20FB010084F185E02D0995892BE1F6D80189
S1133E3016968D919C911797019617969C938E9345
S1133E401697CE01DF91CF911F910F910895FA013A
S1133E50AA27283051F1203181F1E8946F936E7FC5
S1133E606E5F7F4F8F4F9F4FAF4FB1E03ED0B4E0B6
S1133E703CD0670F781F891F9A1FA11D680F791FF7
S1133E808A1F911DA11D6A0F711D811D911DA11D08
S1133E9020D009F468943F912AE0269F1124301918
S1133EA0305D3193DEF6CF010895462F4770405DB3
S1133EB04193B3E00FD0C9F7F6CF462F4F70405D62
S1133EC04A3318F0495D31FD4052419302D0A9F7BD
S1133ED0EACFB4E0A6959795879577956795BA95B7
S1133EE0C9F700976105710508959B01AC010A2E7D
S1133EF006945795479537952795BA95C9F7620F54
S1133F00731F841F951FA01D08952F923F924F92F7
S1133F105F926F927F928F929F92AF92BF92CF9255
S1133F20DF92EF92FF920F931F93CF93DF93CDB75E
S1133F30DEB7CA1BDB0B0FB6F894DEBF0FBECDBFD6
S1133F4009942A88398848885F846E847D848C84A7
S1133F509B84AA84B984C884DF80EE80FD800C81B0
S1133F601B81AA81B981CE0FD11D0FB6F894DEBF93
S10F3F700FBECDBFED010895F894FFCF03
S1133F7CFFFFFFFFFF063132333435363738392A29
S1133F8C3023373635343332310031313232333336
S1133F9C34003130303230303300506C656173652D
S1133FAC20456E7465722055736572004E616D65A3
S1133FBC2650617373776F72640050415353574F9B
S1133FCC52443A00456E746572656420557365728B
S1133FDC204E616D653A0050617373776F72643A69
S1133FEC00456E746572656420506173733A0041C8
S1133FFC4343455353205045524D49544544004185
S113400C43434553532044454E4945440057726F2E
S113401C6E672055736572204E616D6500506C653A
S113402C6173652054727920416761696E0057721F
S113403C6F6E672050617373776F726400506C6598
S113404C61736520456E7465722055736572204EDC
S113405C616D6520262050617373776F7264200044
S113406C0A005072657373202320746F206C6F6781
S113407C696E004C6F63616C2055736572005265F8
S113408C6D6F7465205573657200506C6561736552
S113409C20456E7465722055736572204E616D6592
S11340AC20262050617373776F72642075207761BA
S11340BC6E7420746F206368616E6765000D005028
S11340CC6C6561736520456E746572205468652057
S11340DC6E6577205573657220416E642050617350
S11340EC7300557365722044617461204368616E7A
S11340FC676564205375636365737366756C6C795B
S113410C0057726F6E672055736572204E616D6532
S113411C206F722070617373776F726400312D415C
S113412C4320322D6C6967687400332D74656D708F
S113413C20342D446F6F7200352D206368616E67D7
S113414C6520757365726E616D6520616E64207097
S113415C617373776F726400362D20546F2053692A
S113416C676E204F7574004143206973204F666657
S113417C00526F6F6D2054656D703A202564206376
S113418C00312D20546F205475726E204974204FC9
S113419C6E00302D676F20746F20686F6D65004161
S11341AC43206973204F6E00312D20546F205475B9
S11341BC726E204974204F66660043686F6F736596
S11341CC206C6967687420746F00636F6E74726F0F
S11341DC6C28312D3629004C6967687420312069AC
S11341EC73204F6E00312D546F205475726E20491C
S11341FC74204F6666004C696768742031206973BB
S113420C204F464600312D546F205475726E204950
S113421C74204F6E004C69676874203220697320D7
S113422C4F6E004C696768742032206973204F46C6
S113423C46004C696768742033206973204F6E0004
S113424C4C696768742033206973204F4646004CD0
S113425C696768742034206973204F6E004C696759
S113426C68742034206973204F4646004C69676893
S113427C742035206973204F6E004C696768742074
S113428C35206973204F4646004C696768742036A4
S113429C206973204F6E004272696768746E65738F
S11342AC733A202564250031292B31302032292DF5
S11342BC313020302948004C6967687420362069F5
S11342CC73204F464600446F6F7220697320636CF1
S11342DC6F73656400312D4F70656E20446F6F727F
S11342EC20302D486F6D6500446F6F722069732008
S11342FC6F70656E696E6700446F6F72206973200E
S113430C6F70656E00312D436C6F736520446F6F55
S113431C7220302D486F6D6500446F6F7220697385
S113432C20636C6F73696E6700332D74656D700058
S113433C2057656C636F6D6520746F20796F75728F
S113434C20536D61727420486F6D65002057656C45
S113435C636F6D6520746F20796F75720020202057
S113436C536D61727420486F6D6500302D476F205A
S113437C746F20486F6D6500526F6F6D2054656DBE
S113438C703A2020206300332D74656D7020362D17
S113439C4C6F674F7574004143204973204F6E2F47
S11343AC6F666620302D4800526F6F6D2054656D1A
S11343BC703A202063004272696768746E65737387
S10943CC3A202025000048
S9030000FC
