S011000070726F6A6563745F312E737265638C
S11300000C942A000C943F000C943F000C943F0085
S11300100C943F000C943F000C943F000C943F0060
S11300200C943F000C943F000C943F000C943F0050
S11300300C943F000C943F000C943F000C943F0040
S11300400C943F000C943F000C943F000C943F0030
S11300500C943F0011241FBECFE5D8E0DEBFCDBF16
S113006011E0A0E6B0E0E2E9FEE002C005900D92E6
S1130070AC31B107D9F70E94CD040C9447070C9416
S113008000000E94360708950E94AB0608950F935E
S11300901F93CF93DF9361157105F9F08B01D82F6E
S11300A0C92FC0650E94B7068C2F0E94DA068D2FD7
S11300B00E940407C0E007C0F801EC0FF11D808125
S11300C00E940407CF5FC830B8F30E94D3068FE1C3
S11300D09EE40197F1F700C00000DF91CF911F91DA
S11300E00F910895EF92FF920F931F93CF93DF9395
S11300F04115510581F1611522E0720760F58A010D
S11301007B01D82FC92FC0650E94B7068C2F0E948F
S1130110DA068D2F0E9404070E94C5068C2F0E94C8
S1130120EF06C0E0D0E006C0C8018C0F9D1F0E94FE
S113013010072196C7010197C817D907A8F3800FA4
S1130140911F0E9426070E94D3068FE19EE4019727
S1130150F1F700C00000DF91CF911F910F91FF9044
S1130160EF90089540E063E082E00E94410540E0A2
S113017064E082E00E94410540E065E082E00E9484
S1130180410540E066E082E00E94410541E064E010
S113019081E00E94410541E065E081E00E94410563
S11301A041E066E081E00E94410541E067E081E0D2
S11301B00E94410563E082E00E94730664E082E0ED
S11301C00E94730665E082E00E94730666E082E0A6
S11301D00E94730608956F927F928F929F92AF92BE
S11301E0BF92CF92DF92EF92FF920F931F93CF9320
S11301F0DF93CDB7DEB7A1970FB6F894DEBF0FBE7D
S1130200CDBF009709F480C05C018FEFF5018083B6
S113021081E08D8F8E8F8F8F88A334E0398F25E016
S11302202A8F96E09B8F87E08C8F82E08D8B8E8B5C
S11302308F8B888F83E0898B3A8B2B8B9C8B80E10F
S1130240E0E6F0E0DE01119601900D928A95E1F767
S1130250812C56C0C82CD12CE9E1F0E0EC0FFD1F35
S1130260EC0DFD1D6080EDE1F0E0EC0FFD1FEC0DE9
S1130270FD1D708040E0662D872D0E94B80510E0BA
S113028037C0E12EF12CE1E1F0E0EC0FFD1FEE0DA3
S1130290FF1D0081E5E1F0E0EC0FFD1FEE0DFF1DF9
S11302A09080AE014F5D5F4F602F892D0E9438060C
S11302B089A181111CC007C0AE014F5D5F4F602F43
S11302C0892D0E94380689A18823B1F3EE0CFF1C06
S11302D0EE0CFF1C81E090E08C0F9D1FE80EF91ED0
S11302E0F701EC0DFD1D8081F50180830DC01F5FBA
S11302F0143038F241E0662D872D0E94B8058394AE
S1130300F3E0F81508F0A6CFA1960FB6F894DEBF77
S11303100FBECDBFDF91CF911F910F91FF90EF9052
S1130320DF90CF90BF90AF909F908F907F906F9011
S11303300895CF93C82F80FF06C041E064E080E0B9
S11303400E94B80505C040E064E080E00E94B80562
S1130350C1FF06C041E065E080E00E94B80505C029
S113036040E065E080E00E94B805C2FF06C041E0BD
S113037066E080E00E94B80505C040E066E080E0E9
S11303800E94B805C3FF06C041E067E080E00E9418
S1130390B80505C040E067E080E00E94B805CF9151
S11303A00895CF93C82F40E061E081E00E94B80532
S11303B040E062E081E00E94B8058C2F82958F7046
S11303C00E94990141E063E081E00E94B8058FE951
S11303D09FE00197F1F700C0000040E063E081E096
S11303E00E94B8058C2F0E94990141E063E081E0EE
S11303F00E94B8058FE99FE00197F1F700C0000063
S113040040E063E081E00E94B805CF91089541E0A7
S113041061E081E00E94410541E062E081E00E94E8
S1130420410541E063E081E00E94410541E064E070
S113043080E00E94410541E065E080E00E944105C2
S113044041E066E080E00E94410541E067E080E031
S11304500E9441052FE785EB91E0215080409040B8
S1130460E1F700C0000040E061E081E00E94B805CF
S113047040E062E081E00E94B80582E00E949901B8
S113048041E063E081E00E94B8058FE99FE00197B5
S1130490F1F700C0000040E063E081E00E94B8058D
S11304A088E20E94D10190EF9A95F1F78FE00E94C3
S11304B0D10120EF2A95F1F781E00E94D1018FE369
S11304C09FE10197F1F700C0000086E00E94D1018E
S11304D00895CF93C82F41E061E081E00E94B80500
S11304E040E062E081E00E94B8058C2F82958F7015
S11304F00E94990141E063E081E00E94B8058FE920
S11305009FE00197F1F700C0000040E063E081E064
S11305100E94B8058C2F0E94990141E063E081E0BC
S11305200E94B8058FE99FE00197F1F700C0000031
S113053040E063E081E00E94B805CF9108950F93F5
S11305401F93CF93009771F415C00E9469022FEF97
S113055080E792E0215080409040E1F700C0000025
S1130560CF5F02C08C01C0E0F801EC0FF11D808167
S11305708111EBCFCF911F910F910895CF93DF930A
S1130580CDB7DEB7A8970FB6F894DEBF0FBECDBFC8
S1130590982F60E008C06F5F2DEC929F912D11247D
S11305A09695969596959111F6CF30E024C02DEC52
S11305B0829F212D1124922F969596959695990FA9
S11305C0492F440F440F940F891B982F822F86952F
S11305D086958695432F50E04F5F5F4FE62FF0E0FE
S11305E0E41BF50B41E050E04C0F5D1FE40FF51FD9
S11305F0905D90833F5F3617D0F2E1E0F0E0EC0FBE
S1130600FD1FE60FF11D1082CE0101960E949F028C
S1130610A8960FB6F894DEBF0FBECDBFDF91CF9181
S1130620089581E00E94D1010895CF93DF93683249
S1130630A0F4C62FD82F82E00E94D101D13019F046
S1130640D23031F00AC08C2F80680E94D10105C0DD
S113065080E48C0F80680E94D101DF91CF910895CE
S11306600E9444000E9407020E94B2000E944100BE
S113067041E061E083E00E94410540E060E083E006
S11306800E9441050895CF92DF92EF92FF921F934B
S1130690CF93DF93009709F45FC06115710509F4E6
S11306A05BC07B016C010E94110360E081E00E9449
S11306B015038BE890E00E949F0260E082E00E94B4
S11306C015038DE990E00E949F022FEF83ED90E3E4
S11306D0215080409040E1F700C000000E941103C7
S11306E060E081E00E9415038BEA90E00E949F0283
S11306F010E011C0E601C10FD11DCE010E94EB0034
S113070098819F3FB9F3612F82E00E94150388818D
S11307100E9469021F5F183068F30E94110360E0B1
S113072081E00E94150386EB90E00E949F0210E096
S113073011C0E701C10FD11DCE010E94EB008881D9
S11307408F3FB9F3612F82E00E94150388810E94D4
S113075069021F5F183068F3DF91CF911F91FF90FA
S1130760EF90DF90CF9008958F929F92AF92BF92B7
S1130770CF92DF92EF92FF920F931F93CF93DF9369
S1130780CDB7DEB7A0970FB6F894DEBF0FBECDBFCE
S11307906115710509F4EEC0813009F0EBC0DAC0CF
S11307A09394BE016F5E7F4FCE0149960E9443032E
S11307B0B12CC12CD12C5FC00D2D0295007F10E00F
S11307C0AE01475F5F4F68E070E0C8010E947200AD
S11307D0AE014F5F5F4F68E070E0C80108960E9469
S11307E0720040E020E014C0822F90E0E9E1F0E0E4
S11307F0EC0FFD1FE80FF91F3081E9E0F0E0EC0F8A
S1130800FD1FE80FF91F8081381301C04F5F2F5F70
S1130810283050F3483069F515C0822F90E0E1E1AB
S1130820F0E0EC0FFD1FE80FF91F3081E1E0F0E08C
S1130830EC0FFD1FE80FF91F8081381301C04F5FD3
S11308402F5F02C040E020E0283038F3483079F4CC
S11308502FE0D21206C081E0F701808388248394BC
S11308600EC082E0F70180838824839408C0B39487
S113087001C0C394D394FFE0FD1508F09DCF21E09F
S1130880821214C00E94110360E081E00E941503EB
S113089080EC90E00E949F028FEF99E6E8E181509E
S11308A09040E040E1F700C000005CC0F0E1CF12EE
S11308B027C00E94110360E081E00E94150380EDCF
S11308C090E00E949F0260E082E00E9415038EED9A
S11308D090E00E949F0222E0A216D1F18FEF93EDE7
S11308E0E0E381509040E040E1F700C0000060E0A8
S11308F082E00E9415038EEE90E00E949F0228C0C1
S1130900BB2031F10E94110360E081E00E941503D5
S113091080ED90E00E949F0260E082E00E94150357
S11309208FEF90E00E949F02F2E0AF1689F02FEF64
S113093083ED90E3215080409040E1F700C0000037
S113094060E082E00E9415038EEE90E00E949F0218
S1130950A39404C07B01812C912CA12CE2E0EA1524
S113096008F01ECFF3E09F1205C0811003C083E09E
S1130970F7018083A0960FB6F894DEBF0FBECDBFFB
S1130980DF91CF911F910F91FF90EF90DF90CF9067
S1130990BF90AF909F908F900895CF93DF93CDB782
S11309A0DEB7A1970FB6F894DEBF0FBECDBF0E948D
S11309B030038EE091E00E949F022FEF89E698E1D8
S11309C0215080409040E1F700C000000E941103D4
S11309D088E0E0E7F0E0DE01119601900D928A953F
S11309E0E1F788E0E9E7F0E0DE01199601900D9265
S11309F08A95E1F788E0E2E8F0E0DE0151960190A3
S1130A000D928A95E1F788E0E2E8F0E0DE0159967C
S1130A1001900D928A95E1F7BE016F5F7F4F80E1EF
S1130A2090E00E944700BE01675F7F4F88E190E03D
S1130A300E944700BE016F5E7F4F80EF90E00E94EE
S1130A404700BE01675E7F4F88EF90E00E94470039
S1130A50BE016F5D7F4F81E00E94B4030E941103C9
S1130A6060E081E00E94150389A10E94BE022FEF7D
S1130A7083ED90E3215080409040E1F700C00000F6
S1130A80FFCF813019F130F08230E1F1833009F485
S1130A9054C00895442371F0413009F068C02AB36A
S1130AA081E090E002C0880F991F6A95E2F7822BDB
S1130AB08ABB08952AB381E090E002C0880F991F91
S1130AC06A95E2F7809582238ABB0895442371F0E6
S1130AD0413009F04CC027B381E090E002C0880F98
S1130AE0991F6A95E2F7822B87BB089527B381E0AB
S1130AF090E002C0880F991F6A95E2F780958223DF
S1130B0087BB0895442369F0413089F524B381E01B
S1130B1090E002C0880F991F6A95E2F7822B84BB8C
S1130B20089524B381E090E002C0880F991F6A956C
S1130B30E2F78095822384BB0895442369F0413011
S1130B40B1F421B381E090E002C0880F991F6A9547
S1130B50E2F7822B81BB089521B381E090E002C0CB
S1130B60880F991F6A95E2F78095822381BB0895C7
S1130B70843008F07CC0683008F079C0433008F055
S1130B8076C0813019F130F08230E1F1833009F41C
S1130B9054C00895442371F0413009F068C02BB368
S1130BA081E090E002C0880F991F6A95E2F7822BDA
S1130BB08BBB08952BB381E090E002C0880F991F8E
S1130BC06A95E2F7809582238BBB0895442371F0E4
S1130BD0413009F04CC028B381E090E002C0880F96
S1130BE0991F6A95E2F7822B88BB089528B381E0A8
S1130BF090E002C0880F991F6A95E2F780958223DE
S1130C0088BB0895442369F0413089F525B381E018
S1130C1090E002C0880F991F6A95E2F7822B85BB8A
S1130C20089525B381E090E002C0880F991F6A956A
S1130C30E2F78095822385BB0895442369F041300F
S1130C40B1F422B381E090E002C0880F991F6A9545
S1130C50E2F7822B82BB089522B381E090E002C0C8
S1130C60880F991F6A95E2F78095822382BB0895C5
S1130C708430C0F56830B0F54115510599F18130E3
S1130C8089F028F08230C9F0833011F1089589B3D6
S1130C9090E002C0959587956A95E2F78170FA0114
S1130CA08083089586B390E002C0959587956A95F0
S1130CB0E2F78170FA018083089583B390E002C063
S1130CC0959587956A95E2F78170FA018083089576
S1130CD080B390E002C0959587956A95E2F781709C
S1130CE0FA01808308958430A8F5683098F581303E
S1130CF089F028F08230C9F0833011F108952BB3C4
S1130D0081E090E002C0880F991F6A95E2F7822B78
S1130D108BBB089528B381E090E002C0880F991F2F
S1130D206A95E2F7822B88BB089525B381E090E0B1
S1130D3002C0880F991F6A95E2F7822B85BB08953C
S1130D4022B381E090E002C0880F991F6A95E2F710
S1130D50822B82BB08958CE080B981B18D7F81B9EB
S1130D6081B18E7F81B986B7846086BF089586B7C6
S1130D70806286BF86B7806886BF06B607FEFDCF51
S1130D8081B1887F8830E1F7089586B7806286BF95
S1130D9086B7806886BF06B607FEFDCF81B1887F1F
S1130DA08031E1F7089586B7806186BF86B7806891
S1130DB086BF0895882394F0880F83B983B18E7F0A
S1130DC083B986B78F7D86BF86B7806886BF06B62F
S1130DD007FEFDCF81B1887F8831E1F7089588232C
S1130DE094F0880F83B983B1816083B986B78F7D0E
S1130DF086BF86B7806886BF06B607FEFDCF81B181
S1130E00887F8034E1F7089583B986B7806886BF08
S1130E1006B607FEFDCF81B1887F8832E1F70895D9
S1130E20FC01892B91F096B7906496BF96B79068B1
S1130E3096BF06B607FEFDCF91B1987F9035E1F7D6
S1130E4083B1808386B78F7B86BF0895FC01892B8D
S1130E5061F096B7906896BF06B607FEFDCF91B1D4
S1130E60987F9835E1F783B1808308958BB18D7FA6
S1130E708BB987E689B98AB18B7F8AB986E880BD48
S1130E808AB180618AB98AB188608AB90895F89470
S1050E90FFCF8E
S1130E923132334134353642373839432A302344E8
S1130EA23131313131313131003232323232323256
S1130EB23200393939393939393900506C6561733D
S1130EC26520456E7465722055736572004E616DBE
S1130ED2652650617373776F72640055736572206F
S1130EE24E616D653A0050415353574F52443A0094
S1130EF2414343455353205045524D4954454400C0
S1130F024143434553532044454E49454400577297
S1130F126F6E672055736572204E616D6500506C6B
S1130F22656173652054727920416761696E005767
S1130F32726F6E672050617373776F7264005765C6
S10F0F426C636F6D6520486F6D650000E6
S9030000FC
